{
  "contractName": "DeedMultiPayouts",
  "abi": [
    {
      "inputs": [
        {
          "internalType": "address",
          "name": "_lawyer",
          "type": "address"
        },
        {
          "internalType": "address payable",
          "name": "_beneficiary",
          "type": "address"
        },
        {
          "internalType": "uint256",
          "name": "fromNow",
          "type": "uint256"
        }
      ],
      "payable": true,
      "stateMutability": "payable",
      "type": "constructor"
    },
    {
      "constant": true,
      "inputs": [],
      "name": "INTERVAL",
      "outputs": [
        {
          "internalType": "uint256",
          "name": "",
          "type": "uint256"
        }
      ],
      "payable": false,
      "stateMutability": "view",
      "type": "function"
    },
    {
      "constant": true,
      "inputs": [],
      "name": "PAYOUTS",
      "outputs": [
        {
          "internalType": "uint256",
          "name": "",
          "type": "uint256"
        }
      ],
      "payable": false,
      "stateMutability": "view",
      "type": "function"
    },
    {
      "constant": true,
      "inputs": [],
      "name": "amount",
      "outputs": [
        {
          "internalType": "uint256",
          "name": "",
          "type": "uint256"
        }
      ],
      "payable": false,
      "stateMutability": "view",
      "type": "function"
    },
    {
      "constant": true,
      "inputs": [],
      "name": "beneficiary",
      "outputs": [
        {
          "internalType": "address payable",
          "name": "",
          "type": "address"
        }
      ],
      "payable": false,
      "stateMutability": "view",
      "type": "function"
    },
    {
      "constant": true,
      "inputs": [],
      "name": "earliest",
      "outputs": [
        {
          "internalType": "uint256",
          "name": "",
          "type": "uint256"
        }
      ],
      "payable": false,
      "stateMutability": "view",
      "type": "function"
    },
    {
      "constant": true,
      "inputs": [],
      "name": "lawyer",
      "outputs": [
        {
          "internalType": "address",
          "name": "",
          "type": "address"
        }
      ],
      "payable": false,
      "stateMutability": "view",
      "type": "function"
    },
    {
      "constant": true,
      "inputs": [],
      "name": "paidPayouts",
      "outputs": [
        {
          "internalType": "uint256",
          "name": "",
          "type": "uint256"
        }
      ],
      "payable": false,
      "stateMutability": "view",
      "type": "function"
    },
    {
      "constant": false,
      "inputs": [],
      "name": "withdraw",
      "outputs": [],
      "payable": false,
      "stateMutability": "nonpayable",
      "type": "function"
    },
    {
      "constant": false,
      "inputs": [],
      "name": "balanceOf",
      "outputs": [
        {
          "internalType": "uint256",
          "name": "",
          "type": "uint256"
        }
      ],
      "payable": false,
      "stateMutability": "nonpayable",
      "type": "function"
    }
  ],
  "bytecode": "0x60806040526040516106083803806106088339818101604052606081101561002657600080fd5b81019080805190602001909291908051906020019092919080519060200190929190505050826000806101000a81548173ffffffffffffffffffffffffffffffffffffffff021916908373ffffffffffffffffffffffffffffffffffffffff16021790555081600160006101000a81548173ffffffffffffffffffffffffffffffffffffffff021916908373ffffffffffffffffffffffffffffffffffffffff160217905550804201600281905550600a34816100df57fe5b04600381905550505050610510806100f86000396000f3fe608060405234801561001057600080fd5b50600436106100935760003560e01c80634a8a7ce3116100665780634a8a7ce3146101545780635dd65d3b14610172578063722713f71461019057806389facb20146101ae578063aa8c217c146101cc57610093565b80632be521461461009857806338af3eed146100b65780633bfb6e31146101005780633ccfd60b1461014a575b600080fd5b6100a06101ea565b6040518082815260200191505060405180910390f35b6100be6101ef565b604051808273ffffffffffffffffffffffffffffffffffffffff1673ffffffffffffffffffffffffffffffffffffffff16815260200191505060405180910390f35b610108610215565b604051808273ffffffffffffffffffffffffffffffffffffffff1673ffffffffffffffffffffffffffffffffffffffff16815260200191505060405180910390f35b61015261023a565b005b61015c6104a5565b6040518082815260200191505060405180910390f35b61017a6104ab565b6040518082815260200191505060405180910390f35b6101986104b1565b6040518082815260200191505060405180910390f35b6101b66104d0565b6040518082815260200191505060405180910390f35b6101d46104d5565b6040518082815260200191505060405180910390f35b600a81565b600160009054906101000a900473ffffffffffffffffffffffffffffffffffffffff1681565b6000809054906101000a900473ffffffffffffffffffffffffffffffffffffffff1681565b600160009054906101000a900473ffffffffffffffffffffffffffffffffffffffff1673ffffffffffffffffffffffffffffffffffffffff163373ffffffffffffffffffffffffffffffffffffffff16146102fd576040517f08c379a00000000000000000000000000000000000000000000000000000000081526004018080602001828103825260108152602001807f62656e6566696369617279206f6e6c790000000000000000000000000000000081525060200191505060405180910390fd5b600254421015610375576040517f08c379a00000000000000000000000000000000000000000000000000000000081526004018080602001828103825260098152602001807f746f6f206561726c79000000000000000000000000000000000000000000000081525060200191505060405180910390fd5b600a600454106103ed576040517f08c379a000000000000000000000000000000000000000000000000000000000815260040180806020018281038252600e8152602001807f6e6f207061796f7574206c65667400000000000000000000000000000000000081525060200191505060405180910390fd5b6000600a6002544203816103fd57fe5b049050600060045482039050600a60045482011161041b5780610422565b600454600a035b905080600460008282540192505081905550600160009054906101000a900473ffffffffffffffffffffffffffffffffffffffff1673ffffffffffffffffffffffffffffffffffffffff166108fc60035483029081150290604051600060405180830381858888f193505050501580156104a0573d6000803e3d6000fd5b505050565b60045481565b60025481565b60003073ffffffffffffffffffffffffffffffffffffffff1631905090565b600a81565b6003548156fea265627a7a72315820b16c67684396cdbcf70a618184559541657cc2c5c236f3651a67130130088cf564736f6c634300050c0032",
  "source": "pragma solidity ^0.5.0;\r\n\r\ncontract DeedMultiPayouts {\r\n  address public lawyer;\r\n  address payable public beneficiary;\r\n  uint public earliest;\r\n  uint public amount;\r\n  uint constant public PAYOUTS = 10;\r\n  uint constant public INTERVAL = 10;\r\n  uint public paidPayouts;\r\n  \r\n  constructor(\r\n    address _lawyer,\r\n    address payable _beneficiary,\r\n    uint fromNow)\r\n    payable\r\n    public {\r\n        lawyer = _lawyer;\r\n        beneficiary = _beneficiary;\r\n        earliest = now + fromNow;\r\n        amount = msg.value / PAYOUTS;\r\n    }\r\n  \r\n  function withdraw() public {\r\n    require(msg.sender == beneficiary, 'beneficiary only');\r\n    require(now >= earliest, 'too early');\r\n    require(paidPayouts < PAYOUTS, 'no payout left');\r\n    \r\n    uint elligiblePayouts = (now - earliest) / INTERVAL;\r\n    uint duePayouts = elligiblePayouts - paidPayouts;\r\n    duePayouts = duePayouts + paidPayouts > PAYOUTS ? PAYOUTS - paidPayouts : duePayouts;\r\n    paidPayouts += duePayouts;\r\n    beneficiary.transfer(duePayouts * amount);\r\n  }\r\n\r\n  function balanceOf() public returns(uint){\r\n    return address(this).balance;\r\n  }\r\n\r\n}\r\n\r\n",
  "sourcePath": "C:/Users/jarha/Desktop/solidity/day9-deed-multi-payouts/frontend/start-react/contracts/DeedMultiPayouts.sol",
  "compiler": {
    "name": "solc",
    "version": "0.5.12+commit.7709ece9.Emscripten.clang"
  },
  "schemaVersion": "3.0.20",
  "updatedAt": "2020-01-04T20:22:00.872Z",
  "networkType": "ethereum",
  "devdoc": {
    "methods": {}
  },
  "userdoc": {
    "methods": {}
  }
}