{
  "contractName": "Lottery",
  "abi": [
    {
      "constant": true,
      "inputs": [],
      "name": "currentState",
      "outputs": [
        {
          "name": "",
          "type": "uint8"
        }
      ],
      "payable": false,
      "stateMutability": "view",
      "type": "function"
    },
    {
      "constant": true,
      "inputs": [],
      "name": "houseFee",
      "outputs": [
        {
          "name": "",
          "type": "uint256"
        }
      ],
      "payable": false,
      "stateMutability": "view",
      "type": "function"
    },
    {
      "constant": true,
      "inputs": [],
      "name": "betSize",
      "outputs": [
        {
          "name": "",
          "type": "uint256"
        }
      ],
      "payable": false,
      "stateMutability": "view",
      "type": "function"
    },
    {
      "constant": true,
      "inputs": [],
      "name": "betCount",
      "outputs": [
        {
          "name": "",
          "type": "uint256"
        }
      ],
      "payable": false,
      "stateMutability": "view",
      "type": "function"
    },
    {
      "constant": true,
      "inputs": [
        {
          "name": "",
          "type": "uint256"
        }
      ],
      "name": "players",
      "outputs": [
        {
          "name": "",
          "type": "address"
        }
      ],
      "payable": false,
      "stateMutability": "view",
      "type": "function"
    },
    {
      "constant": true,
      "inputs": [],
      "name": "admin",
      "outputs": [
        {
          "name": "",
          "type": "address"
        }
      ],
      "payable": false,
      "stateMutability": "view",
      "type": "function"
    },
    {
      "inputs": [
        {
          "name": "fee",
          "type": "uint256"
        }
      ],
      "payable": false,
      "stateMutability": "nonpayable",
      "type": "constructor"
    },
    {
      "anonymous": false,
      "inputs": [
        {
          "indexed": false,
          "name": "winner",
          "type": "address"
        }
      ],
      "name": "LottoEnded",
      "type": "event"
    },
    {
      "constant": true,
      "inputs": [],
      "name": "getPlayers",
      "outputs": [
        {
          "name": "",
          "type": "address[]"
        }
      ],
      "payable": false,
      "stateMutability": "view",
      "type": "function"
    },
    {
      "constant": false,
      "inputs": [
        {
          "name": "count",
          "type": "uint256"
        },
        {
          "name": "size",
          "type": "uint256"
        }
      ],
      "name": "createBet",
      "outputs": [],
      "payable": false,
      "stateMutability": "nonpayable",
      "type": "function"
    },
    {
      "constant": false,
      "inputs": [],
      "name": "bet",
      "outputs": [],
      "payable": true,
      "stateMutability": "payable",
      "type": "function"
    },
    {
      "constant": false,
      "inputs": [],
      "name": "cancel",
      "outputs": [],
      "payable": false,
      "stateMutability": "nonpayable",
      "type": "function"
    }
  ],
  "bytecode": "0x60806040526000600160006101000a81548160ff0219169083600181111561002357fe5b021790555034801561003457600080fd5b50604051602080610d1f8339810180604052602081101561005457600080fd5b81019080805190602001909291905050506001811180156100755750606381105b15156100e9576040517f08c379a000000000000000000000000000000000000000000000000000000000815260040180806020018281038252601e8152602001807f6665652073686f756c64206265206265747765656e203120616e64203939000081525060200191505060405180910390fd5b33600560006101000a81548173ffffffffffffffffffffffffffffffffffffffff021916908373ffffffffffffffffffffffffffffffffffffffff1602179055508060048190555050610bde806101416000396000f3fe6080604052600436106100ae576000357c010000000000000000000000000000000000000000000000000000000090048063cf09449711610076578063cf094497146101b8578063ea8a1af0146101e3578063f71d96cb146101fa578063f851a44014610275578063fff058e6146102cc576100ae565b80630c3f6acf146100b35780630ed469b8146100ec57806311610c25146101175780635d1d3e26146101215780638b5b9ccc1461014c575b600080fd5b3480156100bf57600080fd5b506100c8610311565b604051808260018111156100d857fe5b60ff16815260200191505060405180910390f35b3480156100f857600080fd5b50610101610324565b6040518082815260200191505060405180910390f35b61011f61032a565b005b34801561012d57600080fd5b506101366105f5565b6040518082815260200191505060405180910390f35b34801561015857600080fd5b506101616105fb565b6040518080602001828103825283818151815260200191508051906020019060200280838360005b838110156101a4578082015181840152602081019050610189565b505050509050019250505060405180910390f35b3480156101c457600080fd5b506101cd6106e1565b6040518082815260200191505060405180910390f35b3480156101ef57600080fd5b506101f86106e7565b005b34801561020657600080fd5b506102336004803603602081101561021d57600080fd5b8101908080359060200190929190505050610903565b604051808273ffffffffffffffffffffffffffffffffffffffff1673ffffffffffffffffffffffffffffffffffffffff16815260200191505060405180910390f35b34801561028157600080fd5b5061028a610941565b604051808273ffffffffffffffffffffffffffffffffffffffff1673ffffffffffffffffffffffffffffffffffffffff16815260200191505060405180910390f35b3480156102d857600080fd5b5061030f600480360360408110156102ef57600080fd5b810190808035906020019092919080359060200190929190505050610967565b005b600160009054906101000a900460ff1681565b60045481565b60018060009054906101000a900460ff16600181111561034657fe5b81600181111561035257fe5b1415156103aa576040517f08c379a0000000000000000000000000000000000000000000000000000000008152600401808060200182810382526021815260200180610b926021913960400191505060405180910390fd5b60035434141515610406576040517f08c379a0000000000000000000000000000000000000000000000000000000008152600401808060200182810382526021815260200180610b716021913960400191505060405180910390fd5b60003390806001815401808255809150509060018203906000526020600020016000909192909190916101000a81548173ffffffffffffffffffffffffffffffffffffffff021916908373ffffffffffffffffffffffffffffffffffffffff1602179055505060025460008054905014156105f2576000610488600254610ae3565b905060008181548110151561049957fe5b9060005260206000200160009054906101000a900473ffffffffffffffffffffffffffffffffffffffff1673ffffffffffffffffffffffffffffffffffffffff166108fc606460045460640360025460035402028115156104f657fe5b049081150290604051600060405180830381858888f19350505050158015610522573d6000803e3d6000fd5b506000600160006101000a81548160ff0219169083600181111561054257fe5b02179055507f647169e67a8c2a175af414c32a5ff1002e94068e43f9e3b008bd858ac0e9154060008281548110151561057757fe5b9060005260206000200160009054906101000a900473ffffffffffffffffffffffffffffffffffffffff16604051808273ffffffffffffffffffffffffffffffffffffffff1673ffffffffffffffffffffffffffffffffffffffff16815260200191505060405180910390a16000806105f09190610b2a565b505b50565b60035481565b6060806000805490506040519080825280602002602001820160405280156106325781602001602082028038833980820191505090505b50905060008090505b6000805490508110156106d95760008181548110151561065757fe5b9060005260206000200160009054906101000a900473ffffffffffffffffffffffffffffffffffffffff16828281518110151561069057fe5b9060200190602002019073ffffffffffffffffffffffffffffffffffffffff16908173ffffffffffffffffffffffffffffffffffffffff1681525050808060010191505061063b565b508091505090565b60025481565b60018060009054906101000a900460ff16600181111561070357fe5b81600181111561070f57fe5b141515610767576040517f08c379a0000000000000000000000000000000000000000000000000000000008152600401808060200182810382526021815260200180610b926021913960400191505060405180910390fd5b600560009054906101000a900473ffffffffffffffffffffffffffffffffffffffff1673ffffffffffffffffffffffffffffffffffffffff163373ffffffffffffffffffffffffffffffffffffffff1614151561082c576040517f08c379a000000000000000000000000000000000000000000000000000000000815260040180806020018281038252600a8152602001807f6f6e6c792061646d696e0000000000000000000000000000000000000000000081525060200191505060405180910390fd5b60008090505b6000805490508110156108ce5760008181548110151561084e57fe5b9060005260206000200160009054906101000a900473ffffffffffffffffffffffffffffffffffffffff1673ffffffffffffffffffffffffffffffffffffffff166108fc6003549081150290604051600060405180830381858888f193505050501580156108c0573d6000803e3d6000fd5b508080600101915050610832565b506000806108dc9190610b2a565b6000600160006101000a81548160ff021916908360018111156108fb57fe5b021790555050565b60008181548110151561091257fe5b906000526020600020016000915054906101000a900473ffffffffffffffffffffffffffffffffffffffff1681565b600560009054906101000a900473ffffffffffffffffffffffffffffffffffffffff1681565b6000600160009054906101000a900460ff16600181111561098457fe5b81600181111561099057fe5b1415156109e8576040517f08c379a0000000000000000000000000000000000000000000000000000000008152600401808060200182810382526021815260200180610b926021913960400191505060405180910390fd5b600560009054906101000a900473ffffffffffffffffffffffffffffffffffffffff1673ffffffffffffffffffffffffffffffffffffffff163373ffffffffffffffffffffffffffffffffffffffff16141515610aad576040517f08c379a000000000000000000000000000000000000000000000000000000000815260040180806020018281038252600a8152602001807f6f6e6c792061646d696e0000000000000000000000000000000000000000000081525060200191505060405180910390fd5b826002819055508160038190555060018060006101000a81548160ff02191690836001811115610ad957fe5b0217905550505050565b600081424460405160200180838152602001828152602001925050506040516020818303038152906040528051906020012060019004811515610b2257fe5b069050919050565b5080546000825590600052602060002090810190610b489190610b4b565b50565b610b6d91905b80821115610b69576000816000905550600101610b51565b5090565b9056fe63616e206f6e6c79206265742065786163746c7920746865206265742073697a6563757272656e7420737461746520646f6573206e6f7420616c6c6f772074686973a165627a7a723058206f353bf0a56a7bbbaae6a99123ca6a18c785d15eb0a51ec0611d2104961b39110029",
  "source": "pragma solidity ^0.5.4;\n\ncontract Lottery {\n    enum State {\n        IDLE,\n        BETTING\n    }\n\n    event LottoEnded(address winner);\n\n    address payable[] public players;\n    State public currentState = State.IDLE;\n    uint public betCount;\n    uint public betSize;\n    uint public houseFee;\n    address public admin;\n    \n    constructor(uint fee) public {\n        require(fee > 1 && fee < 99, 'fee should be between 1 and 99');\n        admin = msg.sender;\n        houseFee = fee;\n    }\n\n    function getPlayers() \n      external \n      view \n      returns(address[] memory) {\n      address[] memory _players = new address[](players.length);\n      for(uint i = 0; i < players.length; i++) { \n          _players[i] = players[i];\n      }\n      return _players;\n    }\n    \n    function createBet(uint count, uint size) \n        external \n        inState(State.IDLE) \n        onlyAdmin() {\n        betCount = count;\n        betSize = size;\n        currentState = State.BETTING;\n    }\n    \n    function bet() \n        external \n        payable \n        inState(State.BETTING) {\n        require(msg.value == betSize, 'can only bet exactly the bet size');\n        players.push(msg.sender);\n        if(players.length == betCount ) {\n            uint winner = _randomModulo(betCount);\n            players[winner].transfer((betSize * betCount) * (100 - houseFee) / 100);\n            currentState = State.IDLE;\n            emit LottoEnded(players[winner]);\n            delete players;\n        }\n    }\n    \n    function cancel() \n        external \n        inState(State.BETTING) \n        onlyAdmin() {\n        for(uint i = 0; i < players.length; i++) {\n            players[i].transfer(betSize);\n        }\n        delete players;\n        currentState = State.IDLE;\n    }\n    \n    function _randomModulo(uint modulo) view internal returns(uint) {\n        return uint(keccak256(abi.encodePacked(block.timestamp, block.difficulty))) % modulo;\n    }\n    \n    modifier inState(State state) {\n        require(state == currentState, 'current state does not allow this');\n        _;\n    }\n    \n    modifier onlyAdmin() {\n        require(msg.sender == admin, 'only admin');\n        _;\n    }\n}\n",
  "sourcePath": "C:/Users/jarha/Desktop/solidity/day18-lottery/frontend/start/contracts/Lottery.sol",
  "compiler": {
    "name": "solc",
    "version": "0.5.4+commit.9549d8ff.Emscripten.clang"
  },
  "schemaVersion": "3.0.20",
  "updatedAt": "2020-01-02T21:15:00.301Z",
  "networkType": "ethereum",
  "devdoc": {
    "methods": {}
  },
  "userdoc": {
    "methods": {}
  }
}