{
  "contractName": "EventContract",
  "abi": [
    {
      "constant": true,
      "inputs": [
        {
          "name": "",
          "type": "uint256"
        }
      ],
      "name": "events",
      "outputs": [
        {
          "name": "id",
          "type": "uint256"
        },
        {
          "name": "admin",
          "type": "address"
        },
        {
          "name": "name",
          "type": "string"
        },
        {
          "name": "date",
          "type": "uint256"
        },
        {
          "name": "price",
          "type": "uint256"
        },
        {
          "name": "ticketCount",
          "type": "uint256"
        },
        {
          "name": "ticketRemaining",
          "type": "uint256"
        }
      ],
      "payable": false,
      "stateMutability": "view",
      "type": "function"
    },
    {
      "constant": true,
      "inputs": [],
      "name": "nextId",
      "outputs": [
        {
          "name": "",
          "type": "uint256"
        }
      ],
      "payable": false,
      "stateMutability": "view",
      "type": "function"
    },
    {
      "constant": true,
      "inputs": [
        {
          "name": "",
          "type": "address"
        },
        {
          "name": "",
          "type": "uint256"
        }
      ],
      "name": "tickets",
      "outputs": [
        {
          "name": "",
          "type": "uint256"
        }
      ],
      "payable": false,
      "stateMutability": "view",
      "type": "function"
    },
    {
      "constant": false,
      "inputs": [
        {
          "name": "name",
          "type": "string"
        },
        {
          "name": "date",
          "type": "uint256"
        },
        {
          "name": "price",
          "type": "uint256"
        },
        {
          "name": "ticketCount",
          "type": "uint256"
        }
      ],
      "name": "createEvent",
      "outputs": [],
      "payable": false,
      "stateMutability": "nonpayable",
      "type": "function"
    },
    {
      "constant": false,
      "inputs": [
        {
          "name": "id",
          "type": "uint256"
        },
        {
          "name": "quantity",
          "type": "uint256"
        }
      ],
      "name": "buyTicket",
      "outputs": [],
      "payable": true,
      "stateMutability": "payable",
      "type": "function"
    },
    {
      "constant": false,
      "inputs": [
        {
          "name": "eventId",
          "type": "uint256"
        },
        {
          "name": "quantity",
          "type": "uint256"
        },
        {
          "name": "to",
          "type": "address"
        }
      ],
      "name": "transferTicket",
      "outputs": [],
      "payable": false,
      "stateMutability": "nonpayable",
      "type": "function"
    }
  ],
  "bytecode": "0x608060405234801561001057600080fd5b50610d0c806100206000396000f3fe608060405260043610610072576000357c0100000000000000000000000000000000000000000000000000000000900480630374ab0b146100775780630b7914301461011b578063298ec2081461022557806361b8ce8c1461025d578063dae7a13c14610288578063f086a09b146102f7575b600080fd5b34801561008357600080fd5b506101196004803603608081101561009a57600080fd5b81019080803590602001906401000000008111156100b757600080fd5b8201836020820111156100c957600080fd5b803590602001918460018302840111640100000000831117156100eb57600080fd5b909192939192939080359060200190929190803590602001909291908035906020019092919050505061035c565b005b34801561012757600080fd5b506101546004803603602081101561013e57600080fd5b8101908080359060200190929190505050610567565b604051808881526020018773ffffffffffffffffffffffffffffffffffffffff1673ffffffffffffffffffffffffffffffffffffffff16815260200180602001868152602001858152602001848152602001838152602001828103825287818151815260200191508051906020019080838360005b838110156101e45780820151818401526020810190506101c9565b50505050905090810190601f1680156102115780820380516001836020036101000a031916815260200191505b509850505050505050505060405180910390f35b61025b6004803603604081101561023b57600080fd5b810190808035906020019092919080359060200190929190505050610661565b005b34801561026957600080fd5b506102726108e6565b6040518082815260200191505060405180910390f35b34801561029457600080fd5b506102e1600480360360408110156102ab57600080fd5b81019080803573ffffffffffffffffffffffffffffffffffffffff169060200190929190803590602001909291905050506108ec565b6040518082815260200191505060405180910390f35b34801561030357600080fd5b5061035a6004803603606081101561031a57600080fd5b810190808035906020019092919080359060200190929190803573ffffffffffffffffffffffffffffffffffffffff169060200190929190505050610911565b005b42831115156103b6576040517f08c379a0000000000000000000000000000000000000000000000000000000008152600401808060200182810382526028815260200180610c8b6028913960400191505060405180910390fd5b600081111515610411576040517f08c379a000000000000000000000000000000000000000000000000000000000815260040180806020018281038252602e815260200180610cb3602e913960400191505060405180910390fd5b60e06040519081016040528060025481526020013373ffffffffffffffffffffffffffffffffffffffff16815260200186868080601f016020809104026020016040519081016040528093929190818152602001838380828437600081840152601f19601f8201169050808301925050505050505081526020018481526020018381526020018281526020018281525060008060025481526020019081526020016000206000820151816000015560208201518160010160006101000a81548173ffffffffffffffffffffffffffffffffffffffff021916908373ffffffffffffffffffffffffffffffffffffffff1602179055506040820151816002019080519060200190610522929190610bb8565b50606082015181600301556080820151816004015560a0820151816005015560c082015181600601559050506002600081548092919060010191905055505050505050565b60006020528060005260406000206000915090508060000154908060010160009054906101000a900473ffffffffffffffffffffffffffffffffffffffff1690806002018054600181600116156101000203166002900480601f01602080910402602001604051908101604052809291908181526020018280546001816001161561010002031660029004801561063f5780601f106106145761010080835404028352916020019161063f565b820191906000526020600020905b81548152906001019060200180831161062257829003601f168201915b5050505050908060030154908060040154908060050154908060060154905087565b81600080600083815260200190815260200160002060030154141515156106f0576040517f08c379a00000000000000000000000000000000000000000000000000000000081526004018080602001828103825260198152602001807f74686973206576656e7420646f6573206e6f742065786973740000000000000081525060200191505060405180910390fd5b82600080828152602001908152602001600020600301544210151561077d576040517f08c379a00000000000000000000000000000000000000000000000000000000081526004018080602001828103825260118152602001807f6576656e7420686173206578706972656400000000000000000000000000000081525060200191505060405180910390fd5b6000806000868152602001908152602001600020905083816004015402341415156107f3576040517f08c379a000000000000000000000000000000000000000000000000000000000815260040180806020018281038252602d815260200180610c5e602d913960400191505060405180910390fd5b8381600601541015151561086f576040517f08c379a00000000000000000000000000000000000000000000000000000000081526004018080602001828103825260168152602001807f6e6f7420656e6f756768207469636b6574206c6566740000000000000000000081525060200191505060405180910390fd5b83816006016000828254039250508190555083600160003373ffffffffffffffffffffffffffffffffffffffff1673ffffffffffffffffffffffffffffffffffffffff1681526020019081526020016000206000878152602001908152602001600020600082825401925050819055505050505050565b60025481565b6001602052816000526040600020602052806000526040600020600091509150505481565b82600080600083815260200190815260200160002060030154141515156109a0576040517f08c379a00000000000000000000000000000000000000000000000000000000081526004018080602001828103825260198152602001807f74686973206576656e7420646f6573206e6f742065786973740000000000000081525060200191505060405180910390fd5b836000808281526020019081526020016000206003015442101515610a2d576040517f08c379a00000000000000000000000000000000000000000000000000000000081526004018080602001828103825260118152602001807f6576656e7420686173206578706972656400000000000000000000000000000081525060200191505060405180910390fd5b83600160003373ffffffffffffffffffffffffffffffffffffffff1673ffffffffffffffffffffffffffffffffffffffff16815260200190815260200160002060008781526020019081526020016000205410151515610af5576040517f08c379a00000000000000000000000000000000000000000000000000000000081526004018080602001828103825260118152602001807f6e6f7420656e6f756768207469636b657400000000000000000000000000000081525060200191505060405180910390fd5b83600160003373ffffffffffffffffffffffffffffffffffffffff1673ffffffffffffffffffffffffffffffffffffffff16815260200190815260200160002060008781526020019081526020016000206000828254039250508190555083600160008573ffffffffffffffffffffffffffffffffffffffff1673ffffffffffffffffffffffffffffffffffffffff1681526020019081526020016000206000878152602001908152602001600020600082825401925050819055505050505050565b828054600181600116156101000203166002900490600052602060002090601f016020900481019282601f10610bf957805160ff1916838001178555610c27565b82800160010185558215610c27579182015b82811115610c26578251825591602001919060010190610c0b565b5b509050610c349190610c38565b5090565b610c5a91905b80821115610c56576000816000905550600101610c3e565b5090565b9056fe65746865722073656e74206d75737420626520657175616c20746f20746f74616c207469636b657420636f737463616e206f6e6c79206f7267616e697a65206576656e74206174206120667574757265206461746563616e206f6e6c79206f7267616e697a65206576656e742077697468206174206c656173742031207469636b6574a165627a7a72305820bc3a1c3b5023cab00dbee2e53f19328be6f4c47bade9837718201bd9d071ae950029",
  "source": "pragma solidity ^0.5.4;\r\n\r\ncontract EventContract {\r\n  struct Event {\r\n    uint id;\r\n    address admin;\r\n    string name;\r\n    uint date;\r\n    uint price;\r\n    uint ticketCount;\r\n    uint ticketRemaining;\r\n  }\r\n  mapping(uint => Event) public events;\r\n  mapping(address => mapping(uint => uint)) public tickets;\r\n  uint public nextId;\r\n\r\n  function createEvent(\r\n    string calldata name,\r\n    uint date,\r\n    uint price,\r\n    uint ticketCount) \r\n    external {\r\n    require(date > now, 'can only organize event at a future date');\r\n    require(ticketCount > 0, 'can only organize event with at least 1 ticket');\r\n    events[nextId] = Event(\r\n      nextId,\r\n      msg.sender, \r\n      name, \r\n      date, \r\n      price, \r\n      ticketCount,\r\n      ticketCount\r\n    );\r\n    nextId++;\r\n  }\r\n\r\n  function buyTicket(uint id, uint quantity) \r\n    eventExist(id) \r\n    eventNotStarted(id)\r\n    payable\r\n    external {\r\n    Event storage _event = events[id];\r\n    require(msg.value == (_event.price * quantity), 'ether sent must be equal to total ticket cost'); \r\n    require(_event.ticketRemaining >= quantity, 'not enough ticket left');\r\n    _event.ticketRemaining -= quantity;\r\n    tickets[msg.sender][id] += quantity;\r\n  }\r\n\r\n  function transferTicket(uint eventId, uint quantity, address to) \r\n    eventExist(eventId)\r\n    eventNotStarted(eventId)\r\n    external {\r\n      require(tickets[msg.sender][eventId] >= quantity, 'not enough ticket');\r\n      tickets[msg.sender][eventId] -= quantity;\r\n      tickets[to][eventId] += quantity;\r\n  }\r\n\r\n  modifier eventExist(uint id) {\r\n    require(events[id].date != 0, 'this event does not exist');\r\n    _;\r\n  }\r\n  modifier eventNotStarted(uint id) {\r\n    require(now < events[id].date, 'event has expired');\r\n    _;\r\n  }\r\n}\r\n",
  "sourcePath": "C:/Users/jarha/Desktop/solidity/day17-event-organization/frontend/start/contracts/EventContract.sol",
  "compiler": {
    "name": "solc",
    "version": "0.5.4+commit.9549d8ff.Emscripten.clang"
  },
  "schemaVersion": "3.0.20",
  "updatedAt": "2020-01-02T17:03:08.154Z",
  "networkType": "ethereum",
  "devdoc": {
    "methods": {}
  },
  "userdoc": {
    "methods": {}
  }
}